{"abi":[{"type":"constructor","inputs":[{"name":"_identityRegistry","type":"address","internalType":"address"}],"stateMutability":"nonpayable"},{"type":"function","name":"agentToProvider","inputs":[{"name":"","type":"uint256","internalType":"uint256"}],"outputs":[{"name":"","type":"uint256","internalType":"uint256"}],"stateMutability":"view"},{"type":"function","name":"deactivate","inputs":[{"name":"providerId","type":"uint256","internalType":"uint256"}],"outputs":[],"stateMutability":"nonpayable"},{"type":"function","name":"getActiveProvidersByCategory","inputs":[{"name":"category","type":"uint8","internalType":"enum SignalRegistry.SignalCategory"}],"outputs":[{"name":"","type":"uint256[]","internalType":"uint256[]"}],"stateMutability":"view"},{"type":"function","name":"getCheapestProvider","inputs":[{"name":"category","type":"uint8","internalType":"enum SignalRegistry.SignalCategory"}],"outputs":[{"name":"providerId","type":"uint256","internalType":"uint256"},{"name":"price","type":"uint256","internalType":"uint256"}],"stateMutability":"view"},{"type":"function","name":"getProvider","inputs":[{"name":"providerId","type":"uint256","internalType":"uint256"}],"outputs":[{"name":"agentId","type":"uint256","internalType":"uint256"},{"name":"providerWallet","type":"address","internalType":"address"},{"name":"endpoint","type":"string","internalType":"string"},{"name":"name","type":"string","internalType":"string"},{"name":"description","type":"string","internalType":"string"},{"name":"category","type":"uint8","internalType":"enum SignalRegistry.SignalCategory"},{"name":"pricePerCall","type":"uint256","internalType":"uint256"},{"name":"totalCalls","type":"uint256","internalType":"uint256"},{"name":"registeredAt","type":"uint256","internalType":"uint256"},{"name":"active","type":"bool","internalType":"bool"}],"stateMutability":"view"},{"type":"function","name":"getProvidersByCategory","inputs":[{"name":"category","type":"uint8","internalType":"enum SignalRegistry.SignalCategory"}],"outputs":[{"name":"","type":"uint256[]","internalType":"uint256[]"}],"stateMutability":"view"},{"type":"function","name":"identityRegistry","inputs":[],"outputs":[{"name":"","type":"address","internalType":"contract IIdentityRegistry"}],"stateMutability":"view"},{"type":"function","name":"nextProviderId","inputs":[],"outputs":[{"name":"","type":"uint256","internalType":"uint256"}],"stateMutability":"view"},{"type":"function","name":"owner","inputs":[],"outputs":[{"name":"","type":"address","internalType":"address"}],"stateMutability":"view"},{"type":"function","name":"providers","inputs":[{"name":"","type":"uint256","internalType":"uint256"}],"outputs":[{"name":"agentId","type":"uint256","internalType":"uint256"},{"name":"providerWallet","type":"address","internalType":"address"},{"name":"endpoint","type":"string","internalType":"string"},{"name":"name","type":"string","internalType":"string"},{"name":"description","type":"string","internalType":"string"},{"name":"category","type":"uint8","internalType":"enum SignalRegistry.SignalCategory"},{"name":"pricePerCall","type":"uint256","internalType":"uint256"},{"name":"totalCalls","type":"uint256","internalType":"uint256"},{"name":"registeredAt","type":"uint256","internalType":"uint256"},{"name":"active","type":"bool","internalType":"bool"}],"stateMutability":"view"},{"type":"function","name":"recordCalls","inputs":[{"name":"providerId","type":"uint256","internalType":"uint256"},{"name":"newCalls","type":"uint256","internalType":"uint256"}],"outputs":[],"stateMutability":"nonpayable"},{"type":"function","name":"registerProvider","inputs":[{"name":"agentId","type":"uint256","internalType":"uint256"},{"name":"providerWallet","type":"address","internalType":"address"},{"name":"endpoint","type":"string","internalType":"string"},{"name":"name","type":"string","internalType":"string"},{"name":"description","type":"string","internalType":"string"},{"name":"category","type":"uint8","internalType":"enum SignalRegistry.SignalCategory"},{"name":"pricePerCall","type":"uint256","internalType":"uint256"}],"outputs":[{"name":"providerId","type":"uint256","internalType":"uint256"}],"stateMutability":"nonpayable"},{"type":"function","name":"totalProviders","inputs":[],"outputs":[{"name":"","type":"uint256","internalType":"uint256"}],"stateMutability":"view"},{"type":"function","name":"transferOwnership","inputs":[{"name":"newOwner","type":"address","internalType":"address"}],"outputs":[],"stateMutability":"nonpayable"},{"type":"function","name":"updateDescription","inputs":[{"name":"providerId","type":"uint256","internalType":"uint256"},{"name":"newDescription","type":"string","internalType":"string"}],"outputs":[],"stateMutability":"nonpayable"},{"type":"function","name":"updateEndpoint","inputs":[{"name":"providerId","type":"uint256","internalType":"uint256"},{"name":"newEndpoint","type":"string","internalType":"string"}],"outputs":[],"stateMutability":"nonpayable"},{"type":"function","name":"updatePrice","inputs":[{"name":"providerId","type":"uint256","internalType":"uint256"},{"name":"newPrice","type":"uint256","internalType":"uint256"}],"outputs":[],"stateMutability":"nonpayable"},{"type":"event","name":"CallsRecorded","inputs":[{"name":"providerId","type":"uint256","indexed":true,"internalType":"uint256"},{"name":"newCalls","type":"uint256","indexed":false,"internalType":"uint256"},{"name":"totalCalls","type":"uint256","indexed":false,"internalType":"uint256"}],"anonymous":false},{"type":"event","name":"PriceUpdated","inputs":[{"name":"providerId","type":"uint256","indexed":true,"internalType":"uint256"},{"name":"oldPrice","type":"uint256","indexed":false,"internalType":"uint256"},{"name":"newPrice","type":"uint256","indexed":false,"internalType":"uint256"}],"anonymous":false},{"type":"event","name":"ProviderDeactivated","inputs":[{"name":"providerId","type":"uint256","indexed":true,"internalType":"uint256"}],"anonymous":false},{"type":"event","name":"ProviderRegistered","inputs":[{"name":"providerId","type":"uint256","indexed":true,"internalType":"uint256"},{"name":"agentId","type":"uint256","indexed":true,"internalType":"uint256"},{"name":"name","type":"string","indexed":false,"internalType":"string"},{"name":"category","type":"uint8","indexed":false,"internalType":"enum SignalRegistry.SignalCategory"},{"name":"pricePerCall","type":"uint256","indexed":false,"internalType":"uint256"},{"name":"endpoint","type":"string","indexed":false,"internalType":"string"}],"anonymous":false},{"type":"event","name":"ProviderUpdated","inputs":[{"name":"providerId","type":"uint256","indexed":true,"internalType":"uint256"}],"anonymous":false},{"type":"error","name":"AgentAlreadyRegistered","inputs":[{"name":"agentId","type":"uint256","internalType":"uint256"}]},{"type":"error","name":"EmptyEndpoint","inputs":[]},{"type":"error","name":"InvalidPrice","inputs":[]},{"type":"error","name":"NotAgentOwner","inputs":[{"name":"agentId","type":"uint256","internalType":"uint256"}]},{"type":"error","name":"NotOwner","inputs":[]},{"type":"error","name":"NotProviderOwner","inputs":[{"name":"providerId","type":"uint256","internalType":"uint256"}]},{"type":"error","name":"ProviderNotActive","inputs":[{"name":"providerId","type":"uint256","internalType":"uint256"}]}],"bytecode":{"object":"0x60a0346100a757601f6115cf38819003918201601f19168301916001600160401b038311848410176100ab578084926020946040528339810103126100a757516001600160a01b038116908190036100a7575f80546001600160a01b0319163317905560805260405161150f90816100c08239608051818181610388015281816104cf015281816107040152818161084001528181610b000152818161101f01526111320152f35b5f80fd5b634e487b7160e01b5f52604160045260245ffdfe6080806040526004361015610012575f80fd5b5f3560e01c908163134e18f4146111205750806314dee4b314610fdf57806321c3bbed14610a4457806350f3fc81146109bf57806351a8dbcf1461032857806354fec772146108005780635560c617146106c75780635599698d146106505780635c42d079146105ca5780637a7f9763146105a057806382367b2d146104925780638da5cb5b1461046b578063916b9bef1461034557806396616b1f14610328578063acd5dd811461027a578063e7d6c0c11461013b5763f2fde38b146100d7575f80fd5b34610137576020366003190112610137576004356001600160a01b03811690819003610137575f546001600160a01b03163303610128576bffffffffffffffffffffffff60a01b5f5416175f555f80f35b6330cd747160e01b5f5260045ffd5b5f80fd5b346101375760203660031901126101375760043560068110156101375761016190611476565b80545f91825b8281106102365750610178836114c2565b9261018660405194856111f9565b808452610195601f19916114c2565b013660208501375f905f5b8381106101b957604051806101b5878261137c565b0390f35b6101c3818361148d565b90549060031b1c5f52600160205260ff600960405f200154166101e9575b6001016101a0565b916101f4838361148d565b90549060031b1c9261020582611423565b93865183101561022257602060019360051b8801015290506101e1565b634e487b7160e01b5f52603260045260245ffd5b610240818361148d565b90549060031b1c5f52600160205260ff600960405f20015416610266575b600101610167565b92610272600191611423565b93905061025e565b34610137576020366003190112610137576004356006811015610137576102a15f91611476565b905f195f8354905b8181106102c0576040848482519182526020820152f35b6102ca818661148d565b90549060031b1c5f52600160205260405f2060ff6009820154168061031b575b6102f8575b506001016102a9565b600601549093509150600161030d848661148d565b90549060031b1c93906102ef565b50836006820154106102ea565b34610137575f366003190112610137576020600254604051908152f35b3461013757602036600319011261013757600435805f52600160205260405f2054604051906331a9108f60e11b8252600482015260208160248160018060a01b037f0000000000000000000000000000000000000000000000000000000000000000165afa908115610460575f91610431575b506001600160a01b0316330361041f575f81815260016020908152604080832060098101805460ff199081169091559054845260059092528220805490911690557f21f8438182d8680a10580beb2bd887e639299b4354f2eef7144fddf6a63e89949080a2005b630a4d695f60e21b5f5260045260245ffd5b610453915060203d602011610459575b61044b81836111f9565b8101906113b5565b826103b8565b503d610441565b6040513d5f823e3d90fd5b34610137575f366003190112610137575f546040516001600160a01b039091168152602090f35b34610137576104a036611366565b815f52600160205260405f2054604051906331a9108f60e11b8252600482015260208160248160018060a01b037f0000000000000000000000000000000000000000000000000000000000000000165afa908115610460575f91610581575b506001600160a01b0316330361056e578015610560575f828152600160209081526040918290206006018054908490558251908152908101929092527f15819dd2fd9f6418b142e798d08a18d0bf06ea368f4480b7b0d3f75bd966bc4891a2005b62bfc92160e01b5f5260045ffd5b50630a4d695f60e21b5f5260045260245ffd5b61059a915060203d6020116104595761044b81836111f9565b836104ff565b34610137576020366003190112610137576004355f526004602052602060405f2054604051908152f35b34610137576020366003190112610137576004355f52600160205260405f2080546101b560018060a01b036001840154169260ff600582015416600682015460078301549060088401549260ff6009860154169461062a6002820161121a565b90610643600461063c6003840161121a565b920161121a565b916040519a8b9a8b6112eb565b346101375760203660031901126101375760043560068110156101375761067690611476565b6040519081602082549182815201915f5260205f20905f5b8181106106b1576101b5856106a5818703826111f9565b6040519182918261137c565b825484526020909301926001928301920161068e565b34610137576106d536611366565b815f52600160205260405f2054604051906331a9108f60e11b8252600482015260208160248160018060a01b037f0000000000000000000000000000000000000000000000000000000000000000165afa908115610460575f916107e1575b506001600160a01b0316330361056e57815f52600160205260ff600960405f20015416156107ce57815f526001602052600760405f20018054918083018093116107ba577faf606d6ccd6ddefc9182ec9bb02037dce4ec3fe04d2a24bb7ab202944710f91d9260409255835f5260016020526007825f20015482519182526020820152a2005b634e487b7160e01b5f52601160045260245ffd5b50635f7258e760e11b5f5260045260245ffd5b6107fa915060203d6020116104595761044b81836111f9565b83610734565b346101375761080e3661118e565b825f93929352600160205260405f2054604051906331a9108f60e11b8252600482015260208160248160018060a01b037f0000000000000000000000000000000000000000000000000000000000000000165afa908115610460575f916109a0575b506001600160a01b0316330361056e57801561099157815f526001602052600260405f2001906001600160401b03811161097d576108b8816108b284546111c1565b846113d4565b5f601f821160011461091b5781906108e79394955f92610910575b50508160011b915f199060031b1c19161790565b90555b7fd78fa84b17fc71eb590722ba7d04627e81f434575b079bd714d83f03911ca7e85f80a2005b0135905085806108d3565b601f19821694835f5260205f20915f5b87811061096557508360019596971061094c575b505050811b0190556108ea565b01355f19600384901b60f8161c1916905584808061093f565b9092602060018192868601358155019401910161092b565b634e487b7160e01b5f52604160045260245ffd5b63221418ad60e21b5f5260045ffd5b6109b9915060203d6020116104595761044b81836111f9565b84610870565b34610137576020366003190112610137576004355f52600160205260405f2080546101b560018060a01b03600184015416926109fd6002820161121a565b90610a0a6003820161121a565b610a166004830161121a565b60ff60058401541660068401549160078501549360ff6009600888015497015416966040519a8b9a8b6112eb565b346101375760e0366003190112610137576004356024356001600160a01b03811690819003610137576044356001600160401b03811161013757610a8c903690600401611161565b6064939193356001600160401b03811161013757610aae903690600401611161565b91906084356001600160401b03811161013757610acf903690600401611161565b93909260a435936006851015610137576040516331a9108f60e11b81526004810188905260c43596906020816024817f00000000000000000000000000000000000000000000000000000000000000006001600160a01b03165afa908115610460575f91610fc0575b506001600160a01b03163303610fad57875f52600560205260ff60405f205416610f9a5786156105605782156109915760025498610b758a611423565b600255604051906101408201938285106001600160401b0386111761097d57610bd4610bb28e8e976040528d865260208601948552883691611431565b9160408501928352610bc5368a8c611431565b95606086019687523691611431565b936080840194855260a08401948a865260c08501918c835260e08601935f855261010087019542875261012088019960018b525f52600160205260405f2097518855600188019060018060a01b039051166bffffffffffffffffffffffff60a01b8254161790556002870190518051906001600160401b03821161097d57610c6682610c6085546111c1565b856113d4565b602090601f8311600114610f3757610c9492915f9183610e665750508160011b915f199060031b1c19161790565b90555b51805160038701916001600160401b03821161097d57610cbb82610c6085546111c1565b602090601f8311600114610ed457610ce992915f9183610e665750508160011b915f199060031b1c19161790565b90555b51805160048601916001600160401b03821161097d57610d1082610c6085546111c1565b602090601f8311600114610e7157610d3e92915f9183610e665750508160011b915f199060031b1c19161790565b90555b600584019451946006861015610e525760099560ff80198354169116179055516006840155516007830155516008820155019051151560ff80198354169116179055610d8c84611476565b938454916801000000000000000083101561097d576020998997610dda857fbf4c6276747007bd7b80e0bc6f61ed73f4f4205ce5702acad4d56aaaa41eaca7996001610e479801815561148d565b81549060031b908b821b915f19901b1916179055895f5260048c528860405f2055895f5260058c5260405f20600160ff19825416179055610e35610e2b60405198899860808a5260808a01916114a2565b948d8801906112de565b604086015284830360608601526114a2565b0390a3604051908152f35b634e487b7160e01b5f52602160045260245ffd5b015190505f806108d3565b90601f19831691845f52815f20925f5b818110610ebc5750908460019594939210610ea4575b505050811b019055610d41565b01515f1960f88460031b161c191690555f8080610e97565b92936020600181928786015181550195019301610e81565b90601f19831691845f52815f20925f5b818110610f1f5750908460019594939210610f07575b505050811b019055610cec565b01515f1960f88460031b161c191690555f8080610efa565b92936020600181928786015181550195019301610ee4565b90601f19831691845f52815f20925f5b818110610f825750908460019594939210610f6a575b505050811b019055610c97565b01515f1960f88460031b161c191690555f8080610f5d565b92936020600181928786015181550195019301610f47565b8763c441574360e01b5f5260045260245ffd5b87631355025560e11b5f5260045260245ffd5b610fd9915060203d6020116104595761044b81836111f9565b8b610b38565b3461013757610fed3661118e565b825f93929352600160205260405f2054604051906331a9108f60e11b8252600482015260208160248160018060a01b037f0000000000000000000000000000000000000000000000000000000000000000165afa908115610460575f91611101575b506001600160a01b0316330361056e57815f526001602052600460405f2001906001600160401b03811161097d5761108b816108b284546111c1565b5f601f82116001146110b95781906108e79394955f926109105750508160011b915f199060031b1c19161790565b601f19821694835f5260205f20915f5b8781106110e957508360019596971061094c57505050811b0190556108ea565b909260206001819286860135815501940191016110c9565b61111a915060203d6020116104595761044b81836111f9565b8461104f565b34610137575f366003190112610137577f00000000000000000000000000000000000000000000000000000000000000006001600160a01b03168152602090f35b9181601f84011215610137578235916001600160401b038311610137576020838186019501011161013757565b9060406003198301126101375760043591602435906001600160401b038211610137576111bd91600401611161565b9091565b90600182811c921680156111ef575b60208310146111db57565b634e487b7160e01b5f52602260045260245ffd5b91607f16916111d0565b90601f801991011681019081106001600160401b0382111761097d57604052565b9060405191825f82549261122d846111c1565b80845293600181169081156112985750600114611254575b50611252925003836111f9565b565b90505f9291925260205f20905f915b81831061127c575050906020611252928201015f611245565b6020919350806001915483858901015201910190918492611263565b90506020925061125294915060ff191682840152151560051b8201015f611245565b805180835260209291819084018484015e5f828201840152601f01601f1916010190565b906006821015610e525752565b98959a9996936113369061132861134f9561014060408e611344986101209f9c98825260018060a01b0316602082015201526101408d01906112ba565b908b820360608d01526112ba565b9089820360808b01526112ba565b9860a08801906112de565b60c086015260e08501526101008401521515910152565b6040906003190112610137576004359060243590565b60206040818301928281528451809452019201905f5b81811061139f5750505090565b8251845260209384019390920191600101611392565b9081602091031261013757516001600160a01b03811681036101375790565b601f82116113e157505050565b5f5260205f20906020601f840160051c83019310611419575b601f0160051c01905b81811061140e575050565b5f8155600101611403565b90915081906113fa565b5f1981146107ba5760010190565b9291926001600160401b03821161097d576040519161145a601f8201601f1916602001846111f9565b829481845281830111610137578281602093845f960137010152565b6006811015610e52575f52600360205260405f2090565b8054821015610222575f5260205f2001905f90565b908060209392818452848401375f828201840152601f01601f1916010190565b6001600160401b03811161097d5760051b6020019056fea264697066735822122057fa62419dfa86b755d0248aab7e0c0f084cc0d1ff2bf68daf78e7671f6892a564736f6c634300081e0033","linkReferences":{}},"methodIdentifiers":{"agentToProvider(uint256)":"7a7f9763","deactivate(uint256)":"916b9bef","getActiveProvidersByCategory(uint8)":"e7d6c0c1","getCheapestProvider(uint8)":"acd5dd81","getProvider(uint256)":"5c42d079","getProvidersByCategory(uint8)":"5599698d","identityRegistry()":"134e18f4","nextProviderId()":"51a8dbcf","owner()":"8da5cb5b","providers(uint256)":"50f3fc81","recordCalls(uint256,uint256)":"5560c617","registerProvider(uint256,address,string,string,string,uint8,uint256)":"21c3bbed","totalProviders()":"96616b1f","transferOwnership(address)":"f2fde38b","updateDescription(uint256,string)":"14dee4b3","updateEndpoint(uint256,string)":"54fec772","updatePrice(uint256,uint256)":"82367b2d"},"id":19}